:020000040800F2
:10000000C8060020190A0008210A0008230A00086F
:1000100000000000000000000000000000000000E0
:10002000000000000000000000000000250A000899
:100030000000000000000000270A0008290A00084C
:100040002B0A00082B0A00082B0A00082B0A0008BC
:100050002B0A00082B0A00082B0A00082B0A0008AC
:10006000000000002B0A00082B0A00082B0A0008D9
:100070002B0A00082B0A00082B0A00082B0A00088C
:100080002B0A000800000000000000002B0A0008F6
:10009000000000002B0A00082B0A00082B0A0008A9
:1000A000000000002B0A0008000000002B0A0008D6
:1000B00000F002F800F040F80CA030C8083824180E
:1000C0002D18A246671EAB4654465D46AC4201D190
:1000D00000F032F87E460F3E0FCCB6460126334282
:1000E00000D0FB1AA246AB46334318471811000054
:1000F00038110000103A02D378C878C1FAD85207F4
:1001000001D330C830C101D504680C6070470000CD
:100110000023002400250026103A01D378C1FBD823
:10012000520700D330C100D50B6070471FB5C046E1
:10013000C0461FBD10B510BD01F024F81146FFF7F1
:10014000F5FF00F010F801F03CF803B4FFF7F2FF00
:1001500003BC01F041F8000010B5302000F01DFC98
:1001600000F07AFD10BDFFF7F7FF02E0014800F054
:1001700025FFFBE72000002010B504460920C0063B
:10018000844209D10121480400F095FB002101209F
:10019000400400F090FB30E06E48844208D1012119
:1001A000000200F088FB0021200200F084FB24E024
:1001B0006948844208D10121000200F07CFB002143
:1001C000200200F078FB18E06448844209D1012144
:1001D000080500F070FB00210120000500F06BFB1A
:1001E0000BE05F48844208D10121880500F063FBE1
:1001F00000210120800500F05EFB10BDF0B50A462D
:1002000000210023002400BF3DE001258D402B4646
:1002100015681D402C469C4234D11579012D02D021
:100220001579022D16D185684F000326BE40B543CF
:10023000856055794E00B540866835438560858870
:1002400001268E40B5438580858896798E40B6B26A
:100250003543858005684F000326BE40B5430560E1
:1002600015794E00B540066835430560C5684F00F6
:100270000326BE40B543C560D5794E00B540C6687B
:100280003543C560491C1029BFD3F0BD3549016015
:10029000002101710221417100218171C1717047FA
:1002A00008B5012212040092009A0A430092009AB3
:1002B000C261C161009AC261C2690092C2690092C2
:1002C00008BD02460020138A0B40002B01D00120FC
:1002D00000E0002070470146088A7047024600206F
:1002E000938A0B40002B01D0012000E000207047D2
:1002F0000146888A70478161704701857047002AEE
:1003000001D0816100E00185704781827047F0B5BE
:10031000002300244D07EE0E1546B5402B46CD10A8
:10032000AE0005462035AD594E07F70E0F26BE40EC
:10033000B543CE10B60007462037BD51CD10AE00F4
:100340003D46AD591D432C46CD10AD003E4674517F
:10035000F0BD00000004004800080048000C004800
:1003600000140048FFFF0000FD4800680121084319
:10037000FB49086008464068FA490840F849486067
:1003800008460068F8490840F549086008460068D2
:10039000012189048843F2490860084640683F21EA
:1003A00009048843EE4948600846C06A0009000114
:1003B000C8620846006BFF2154318843E84908634E
:1003C0000846406B40084000486300208860704742
:1003D0000021E34A917011468870704710B50246BB
:1003E0000021002300205111002902D1DC4C236898
:1003F0000BE0012902D1DA4C236A06E0022902D17E
:10040000D74C636A01E0D64C636BD106C90E012458
:100410008C401C40002C01D0012000E0002010BDC9
:1004200038B5002000900024002500BF1120FFF700
:10043000D5FF05460098401C00900521090300984F
:10044000884201D0002DF1D01120FFF7C7FF00280E
:1004500001D0012400E00024204638BD01460020E0
:10046000BF4A1068F82302469A431046CA00104358
:10047000BB4A10607047002806D0B94909680122BC
:100480001143B74A116005E0B549096849084900B8
:10049000B34A1160704701460020B14A506BF823FF
:1004A00002469A431046CA001043AD4A5063704753
:1004B000002806D0AA49496B01221143A84A51637A
:1004C00005E0A749496B49084900A54A51637047AF
:1004D000002806D0A249496B04229143A04A5163E7
:1004E00005E09F49496B042211439D4A51637047BF
:1004F0009B49096A49084900994A11621146096AEB
:1005000004229143964A11621146096A014311621D
:1005100070479349096A18229143914A1162114622
:10052000096A014311627047002806D08C49496A64
:10053000012211438A4A516205E08949496A490802
:100540004900874A51627047854A52683D231B041F
:100550009A43834B5A601A46526803460B431A4328
:100560007F4B5A607047002807D07D4909680122F7
:10057000120611437A4A116006E07949096801229E
:1005800012069143764A1160704701460020744A72
:10059000D06A0009000102460A431046704AD06240
:1005A0007047002807D06E4909680122D204114320
:1005B0006B4A116006E06A4909680122D20491433E
:1005C000674A116070476649C8717047014600204C
:1005D000634A50688008800002460A431046604A19
:1005E000506070475E4840680C21084070470146E3
:1005F00000205B4A5068F02302469A4310460246A8
:100600000A431046564A5060704701460020544A3B
:10061000506807231B0202469A43104602460A43CB
:1006200010464F4A506070474D4949680122920375
:1006300091434B4A51601146496882B21143484A7E
:1006400051601146096B92159143454A1163114659
:10065000096B020C1143424A116370474049096B10
:10066000402291433E4A11631146096B01431163D5
:1006700070473B49096B10229143394A1163114677
:10068000096B0143116370473549096B890889007B
:10069000334A11631146096B014311637047FEB57C
:1006A00004460025002600200190009000272C48D9
:1006B00040680C2108400546002D04D0042D05D0CB
:1006C000082D28D105E02948206027E02748206030
:1006D00024E0234840680F2189040840064620484A
:1006E00040680121090408400190B00C861C019863
:1006F000002803D11E48704320600BE01848C06AF0
:100700000007000F401C00901848009900F08AFC78
:100710007043206002E01548206000BF00BF104811
:100720004068F021084005462D091248475D2068C1
:10073000F84060600A484068072109020840054601
:100740002D0A0C48475D6068F840A0600448006BC3
:10075000FF2101310840884210D00748E0601BE0CB
:10076000001002400CB8FFF8FFFFF6FE00127A00FE
:1007700000093D0040000020809FD500754840687A
:10078000012189030840884203D0A0684008E06046
:1007900002E0A0688008E0606E48006B40210840DD
:1007A000402802D06C48206102E00120C003206193
:1007B0006848006B10210840102802D0674860612B
:1007C00001E0206860616348006B8007800F0028AB
:1007D00002D1A068A06119E05E48006B8007800F1D
:1007E000012802D12068A06110E05A48006B800700
:1007F000800F022802D18003A06107E05548006BFA
:100800008007800F032801D15448A061FEBD5149E3
:10081000096A01434F4A11627047002807D04D49C9
:10082000096A0122D20311434A4A116206E049498A
:10083000096A0122D2039143464A11627047002897
:1008400007D04449096A012212041143414A116246
:1008500006E04049096A0122120491433D4A1162AF
:100860007047002905D03B4A52690243394B5A610F
:1008700004E0384A52698243364B5A617047002976
:1008800005D0344A92690243324B9A6104E0314AFE
:10089000926982432F4B9A617047002905D02D4AF7
:1008A000D26902432B4BDA6104E02A4AD2698243BF
:1008B000284BDA617047002905D0264A926A024324
:1008C000244B9A6204E0234A926A8243214B9A6243
:1008D0007047002905D01F4AD26802431D4BDA60D9
:1008E00004E01C4AD26882431A4BDA607047002940
:1008F00005D0184A12690243164B1A6104E0154AE2
:1009000012698243134B1A617047002905D0114ABE
:10091000527A02430F4B5A7204E00E4A527A8243D3
:100920000C4B5A7270470B48406A01210906084374
:1009300008494862704701460020064A92680A400A
:10094000002A01D0012000E0002070470149887290
:1009500070470000001002401280000000127A0070
:100960002A4909884143491E294A5161012191615F
:100970001146096901221143254A116100BF24492A
:1009800009690122120411400029F8D0204909699F
:10099000490849001E4A116170471D49096904222E
:1009A00091431B4A11611146096902229143184A79
:1009B0001161C217520F12185205120E154B1A7000
:1009C000194609787D22D2005143104A11807047A0
:1009D000104909784143491E0D4A51610121916135
:1009E0001146096901221143094A116100BF0849F2
:1009F00009690122120411400029F8D0044909694B
:100A000049084900024A1161704700005000002067
:100A100000E000E0520000200748804707480047F8
:100A2000FEE7FEE7FEE7FEE7FEE7FEE704480549CE
:100A3000054A064B70470000310B0008B100000862
:100A4000C8000020C8060020C8020020C8020020FC
:100A50000CB500200190009077480068012109043E
:100A600008437549086000BF7348006801214904C4
:100A7000084000900198401C01900098002804D183
:100A80000521090301988842EED16B4800680121D5
:100A900049040840002802D00120009001E0002015
:100AA00000900098012842D1644800681021084352
:100AB0006249086008460068012108435F490860F0
:100AC0005D4840685C4948600846406848600846A0
:100AD00040683F21090488435749486008464068F8
:100AE000112109040843544948600846006801215F
:100AF000090608435049086000BF4F4800680121BB
:100B0000490608400028F8D04B484068800880001B
:100B10004949486008464068022108434649486000
:100B200000BF454840680C2108400828F9D10CBD99
:100B300010B541480068012108433F490860084654
:100B400040683F4908403C494860084600683D49C4
:100B50000840394908600846006801218904884333
:100B600035490860084640683F21090488433249F6
:100B700048600846C06A00090001C8620846006B68
:100B8000FF21543188432C4908630846406B4008D4
:100B90004000486300208860FFF75AFF10BDF8B599
:100BA0000025002400260027234840680C21084027
:100BB0000546002D04D0042D06D0082D2AD107E0CB
:100BC00021482249086029E01F482049086025E0A3
:100BD000194840680F2189040840044616484068B7
:100BE0000121090408400646A00C841C002E04D1F3
:100BF00017486043154908600BE00F48C06A0007BA
:100C0000000F471C3946104800F00CFA60430F49AA
:100C1000086003E00C480D49086000BF00BF0648AB
:100C20004068F021084000090A490D5C0748006847
:100C3000E84006490860F8BD00100240002002406C
:100C40000CB8FFF8FFFFF6FE00127A0054000020F7
:100C500000093D00580000201CB501214804FFF7A1
:100C600000FEFF20009003216846417101210171BF
:100C70000021817169460920C006FFF7BFFA1CBD3B
:100C800010B50446230000F0AEFA10091E33485D8B
:100C900072879CB1C6DBF5F3F2F1F01D012109204A
:100CA000C006FFF72AFB02210920C006FFF725FB3B
:100CB00004210920C006FFF720FB08210920C006F7
:100CC000FFF71BFB3FE101210920C006FFF715FBE1
:100CD00002210920C006FFF710FB04210920C006ED
:100CE000FFF70BFB08210920C006FFF704FB2AE1F0
:100CF00001210920C006FFF700FB02210920C006E0
:100D0000FFF7FBFA04210920C006FFF7F4FA0821D7
:100D10000920C006FFF7F1FA15E101210920C006FC
:100D2000FFF7EBFA02210920C006FFF7E6FA0421DB
:100D30000920C006FFF7DFFA08210920C006FFF7E7
:100D4000DAFA00E101210920C006FFF7D6FA0221F4
:100D50000920C006FFF7CFFA04210920C006FFF7DB
:100D6000CCFA08210920C006FFF7C7FAEBE0012101
:100D70000920C006FFF7C1FA02210920C006FFF7CB
:100D8000BAFA04210920C006FFF7B7FA08210920A2
:100D9000C006FFF7B0FAD6E001210920C006FFF730
:100DA000ACFA02210920C006FFF7A5FA04210920A8
:100DB000C006FFF7A0FA08210920C006FFF79DFA38
:100DC000C1E001210920C006FFF797FA022109209E
:100DD000C006FFF790FA04210920C006FFF78BFA3E
:100DE00008210920C006FFF786FAACE0012109209E
:100DF000C006FFF780FA02210920C006FFF77DFA3E
:100E000004210920C006FFF778FA08210920C0064E
:100E1000FFF773FA97E001210920C006FFF76BFA8C
:100E200002210920C006FFF768FA04210920C00644
:100E3000FFF763FA08210920C006FFF75CFA82E099
:100E400001210920C006FFF756FA02210920C00639
:100E5000FFF753FA04210920C006FFF74CFA0821D6
:100E60000920C006FFF749FA6DE057E041E02BE0AA
:100E700015E0FFE701210920C006FFF73CFA022137
:100E80000920C006FFF739FA04210920C006FFF740
:100E900032FA08210920C006FFF72DFA53E001219C
:100EA0000920C006FFF727FA02210920C006FFF734
:100EB00022FA04210920C006FFF71FFA08210920A1
:100EC000C006FFF71AFA3EE001210920C006FFF72D
:100ED00012FA02210920C006FFF70DFA04210920A9
:100EE000C006FFF70AFA08210920C006FFF703FA37
:100EF00029E001210920C006FFF7FDF902210920A0
:100F0000C006FFF7F8F904210920C006FFF7F3F93E
:100F100008210920C006FFF7F0F914E0012109209B
:100F2000C006FFF7E8F902210920C006FFF7E3F940
:100F300004210920C006FFF7DEF908210920C006B8
:100F4000FFF7D9F900BF00BF10BD70B504464021BE
:100F50000920C006FFF7D1F90120FFF739FD8021F4
:100F60000920C006FFF7C9F90120FFF731FD002570
:100F700021E0E007C00F002805D020210920C0068D
:100F8000FFF7B9F904E020210920C006FFF7B5F901
:100F900040210920C006FFF7AEF90120FFF718FD38
:100FA00040210920C006FFF7A8F90120FFF710FD36
:100FB0006410681CC5B2082DDBDB70BD70B505463A
:100FC00000242CE010210920C006FFF794F92146E7
:100FD0001031685CFFF7B9FF285DFFF7B6FF80218D
:100FE0000920C006FFF787F90120FFF7F1FC8021F7
:100FF0000920C006FFF781F90120FFF7E9FC204630
:10100000FFF73EFE10210920C006FFF776F9002603
:1010100001E0701CC6B2642EFBDB601CC4B2102C55
:10102000D0DB70BD002203098B422CD3030A8B4214
:1010300011D300239C464EE003460B433CD40022D0
:1010400043088B4231D303098B421CD3030A8B42E2
:1010500001D394463FE0C3098B4201D3CB01C01AB0
:10106000524183098B4201D38B01C01A524143097B
:101070008B4201D34B01C01A524103098B4201D369
:101080000B01C01A5241C3088B4201D3CB00C01AD6
:10109000524183088B4201D38B00C01A524143084E
:1010A0008B4201D34B00C01A5241411A00D2014673
:1010B0005241104670475DE0CA0F00D0494203100C
:1010C00000D34042534000229C4603098B422DD35B
:1010D000030A8B4212D3FC22890112BA030A8B4203
:1010E0000CD3890192118B4208D3890192118B4252
:1010F00004D389013AD0921100E08909C3098B42D7
:1011000001D3CB01C01A524183098B4201D38B0119
:10111000C01A524143098B4201D34B01C01A5241BC
:1011200003098B4201D30B01C01A5241C3088B4201
:1011300001D3CB00C01A524183088B4201D38B00EC
:10114000C01A5241D9D243088B4201D34B00C01A76
:101150005241411A00D20146634652415B1010468B
:1011600001D34042002B00D54942704763465B10D3
:1011700000D3404201B50020C046C04602BD7047C2
:1011800070477047754600F023F8AE460500694683
:101190005346C008C000854618B020B5FFF746FC8E
:1011A00060BC00274908B6460026C0C5C0C5C0C5FA
:1011B000C0C5C0C5C0C5C0C5C0C5403D49008D46FD
:1011C00070470446C046C0462046FEF7BEFF0000FA
:1011D000004870476800002001491820ABBEFEE7B8
:1011E00026000200704730B47446641E2578641CE3
:1011F000AB4204D3635D5B00E31830BC18471D4667
:10120000F8E7000024120008000000206800000039
:10121000F40000088C12000868000020600600003E
:1012200010010008FF86F6F686BFBCBD85F5F4F711
:10123000F7F7D7ECFF07F7F707BF03BBBBBB03BF4D
:10124000B7BB813BFFFFFFE1C0808080C0E0F0F8CA
:10125000FCFEFFFFFFFFFF870301010103070F1FD4
:101260003F7FFFFF000000000102030401020304AE
:101270000607080900000000006CDC020000000006
:0C1280000000000001020304060708093A
:04000005080000B13E
:00000001FF
